:080000000C94E8050C940000CB
:100008000C9400000C9400000C9400000C94000068
:100018000C9400000C9400000C9400000C94000058
:100028000C9400000C9400000C9400000C944409FB
:100038000C9400000C9400000C9400000C94270908
:100048000C9400000C9400000C9400000C942209FD
:100058000C9400000C9400000C9400000C94000018
:100068000C9400000C9400000C9400000C94000008
:100078000C9400000C9400000C9400000C940000F8
:100088000C9400000C9400000C9400000C940000E8
:10009800637C777BF26B6FC53001672BFED7AB763D
:1000A800CA82C97DFA5947F0ADD4A2AF9CA472C0E8
:1000B800B7FD9326363FF7CC34A5E5F171D8311555
:1000C80004C723C31896059A071280E2EB27B27576
:1000D80009832C1A1B6E5AA0523BD6B329E32F84EE
:1000E80053D100ED20FCB15B6ACBBE394A4C58CFE6
:1000F800D0EFAAFB434D338545F9027F503C9FA8BA
:1001080051A3408F929D38F5BCB6DA2110FFF3D287
:10011800CD0C13EC5F974417C4A77E3D645D19733B
:1001280060814FDC222A908846EEB814DE5E0BDB35
:10013800E0323A0A4906245CC2D3AC629195E4796C
:10014800E7C8376D8DD54EA96C56F4EA657AAE08C6
:10015800BA78252E1CA6B4C6E8DD741F4BBD8B8A61
:10016800703EB5664803F60E613557B986C11D9EC7
:10017800E1F8981169D98E949B1E87E9CE5528DF3E
:100188008CA1890DBFE6426841992D0FB054BB166A
:1001980052096AD53036A538BF40A39E81F3D7FBF4
:1001A8007CE339829B2FFF87348E4344C4DEE9CB3E
:1001B800547B9432A6C2233DEE4C950B42FAC34EB3
:1001C800082EA16628D924B2765BA2496D8BD12569
:1001D80072F8F66486689816D4A45CCC5D65B6920D
:1001E8006C704850FDEDB9DA5E154657A78D9D84B1
:1001F80090D8AB008CBCD30AF7E45805B8B34506D1
:10020800D02C1E8FCA3F0F02C1AFBD0301138A6BEA
:100218003A9111414F67DCEA97F2CFCEF0B4E6731A
:1002280096AC7422E7AD3585E2F937E81C75DF6EC8
:1002380047F11A711D29C5896FB7620EAA18BE1B2E
:10024800FC563E4BC6D279209ADBC0FE78CD5AF4D4
:100258001FDDA8338807C731B11210592780EC5F1A
:1002680060517FA919B54A0D2DE57A9F93C99CEF76
:10027800A0E03B4DAE2AF5B0C8EBBB3C8353996177
:10028800172B047EBA77D626E169146355210C7DB5
:100298008D01020408102040801B3600000204066D
:1002A800080A0C0E10121416181A1C1E20222426D6
:1002B800282A2C2E30323436383A3C3E40424446C6
:1002C800484A4C4E50525456585A5C5E60626466B6
:1002D800686A6C6E70727476787A7C7E80828486A6
:1002E800888A8C8E90929496989A9C9EA0A2A4A696
:1002F800A8AAACAEB0B2B4B6B8BABCBEC0C2C4C686
:10030800C8CACCCED0D2D4D6D8DADCDEE0E2E4E675
:10031800E8EAECEEF0F2F4F6F8FAFCFE1B191F1D01
:10032800131117150B090F0D030107053B393F3D45
:10033800333137352B292F2D232127255B595F5D35
:10034800535157554B494F4D434147457B797F7D25
:10035800737177756B696F6D636167659B999F9D15
:10036800939197958B898F8D83818785BBB9BFBD05
:10037800B3B1B7B5ABA9AFADA3A1A7A5DBD9DFDDF5
:10038800D3D1D7D5CBC9CFCDC3C1C7C5FBF9FFFDE5
:10039800F3F1F7F5EBE9EFEDE3E1E7E50003060537
:1003A8000C0F0A09181B1E1D14171211303336358D
:1003B8003C3F3A39282B2E2D24272221606366657D
:1003C8006C6F6A69787B7E7D74777271505356556D
:1003D8005C5F5A59484B4E4D44474241C0C3C6C55D
:1003E800CCCFCAC9D8DBDEDDD4D7D2D1F0F3F6F54D
:1003F800FCFFFAF9E8EBEEEDE4E7E2E1A0A3A6A53D
:10040800ACAFAAA9B8BBBEBDB4B7B2B1909396952C
:100418009C9F9A99888B8E8D848782819B989D9EBC
:1004280097949192838085868F8C898AABA8ADAE8C
:10043800A7A4A1A2B3B0B5B6BFBCB9BAFBF8FDFE7C
:10044800F7F4F1F2E3E0E5E6EFECE9EACBC8CDCE6C
:10045800C7C4C1C2D3D0D5D6DFDCD9DA5B585D5E5C
:1004680057545152434045464F4C494A6B686D6E4C
:1004780067646162737075767F7C797A3B383D3E3C
:1004880037343132232025262F2C292A0B080D0E2C
:1004980007040102131015161F1C191A0009121B54
:1004A800242D363F48415A536C657E779099828B4C
:1004B800B4BDA6AFD8D1CAC3FCF5EEE73B322920BC
:1004C8001F160D04737A6168575E454CABA2B9B02C
:1004D8008F869D94E3EAF1F8C7CED5DC767F646D0C
:1004E800525B40493E372C251A130801E6EFF4FD0C
:1004F800C2CBD0D9AEA7BCB58A8398914D445F567C
:1005080069607B72050C171E2128333ADDD4CFC6EB
:10051800F9F0EBE2959C878EB1B8A3AAECE5FEF75B
:10052800C8C1DAD3A4ADB6BF8089929B7C756E67CB
:1005380058514A43343D262F1019020BD7DEC5CC3B
:10054800F3FAE1E89F968D84BBB2A9A0474E555CAB
:10055800636A71780F061D142B2239309A938881AB
:10056800BEB7ACA5D2DBC0C9F6FFE4ED0A0318118B
:100578002E273C35424B5059666F747DA1A8B3BAFB
:10058800858C979EE9E0FBF2CDC4DFD63138232A6B
:10059800151C070E79706B625D544F46000B161DD3
:1005A8002C273A3158534E45747F6269B0BBA6ADCB
:1005B8009C978A81E8E3FEF5C4CFD2D97B706D663B
:1005C800575C414A2328353E0F041912CBC0DDD6AB
:1005D800E7ECF1FA9398858EBFB4A9A2F6FDE0EB9B
:1005E800DAD1CCC7AEA5B8B38289949F464D505B8B
:1005F8006A617C771E1508033239242F8D869B90FB
:10060800A1AAB7BCD5DEC3C8F9F2EFE43D362B206A
:10061800111A070C656E737849425F54F7FCE1EADA
:10062800DBD0CDC6AFA4B9B28388959E474C515A4A
:100638006B607D761F1409023338252E8C879A91BA
:10064800A0ABB6BDD4DFC2C9F8F3EEE53C372A212A
:10065800101B060D646F727948435E55010A171C1A
:100668002D263B3059524F44757E6368B1BAA7AC0A
:100678009D968B80E9E2FFF4C5CED3D87A716C677A
:10068800565D404B2229343F0E051813CAC1DCD7EA
:10069800E6EDF0FB9299848FBEB5A8A3000D1A175A
:1006A80034392E236865727F5C51464BD0DDCAC74A
:1006B800E4E9FEF3B8B5A2AF8C81969BBBB6A1ACBA
:1006C8008F829598D3DEC9C4E7EAFDF06B66717C2A
:1006D8005F524548030E1914373A2D206D60777A1A
:1006E8005954434E05081F12313C2B26BDB0A7AA0A
:1006F8008984939ED5D8CFC2E1ECFBF6D6DBCCC17A
:10070800E2EFF8F5BEB3A4A98A87909D060B1C11E9
:10071800323F28256E6374795A57404DDAD7C0CDD9
:10072800EEE3F4F9B2BFA8A5868B9C910A07101DC9
:100738003E332429626F7875565B4C41616C7B7639
:1007480055584F420904131E3D30272AB1BCABA6A9
:1007580085889F92D9D4C3CEEDE0F7FAB7BAADA099
:10076800838E9994DFD2C5C8EBE6F1FC676A7D7089
:10077800535E49440F0215183B36212C0C01161BF9
:100788003835222F64697E73505D4A47DCD1C6CB69
:10079800E8E5F2FFB4B9AEA3808D9A97000E1C125B
:1007A8003836242A707E6C624846545AE0EEFCF2D1
:1007B800D8D6C4CA909E8C82A8A6B4BADBD5C7C9BD
:1007C800E3EDFFF1ABA5B7B9939D8F813B352729A1
:1007D800030D1F114B455759737D6F61ADA3B1BF11
:1007E800959B8987DDD3C1CFE5EBF9F74D43515F81
:1007F800757B69673D33212F050B191776786A6475
:100808004E40525C06081A143E30222C96988A8470
:10081800AEA0B2BCE6E8FAF4DED0C2CC414F5D53DC
:100828007977656B313F2D230907151BA1AFBDB340
:100838009997858BD1DFCDC3E9E7F5FB9A94868834
:10084800A2ACBEB0EAE4F6F8D2DCCEC07A74666830
:10085800424C5E500A041618323C2E20ECE2F0FEA0
:10086800D4DAC8C69C92808EA4AAB8B60C02101E10
:10087800343A28267C72606E444A585637392B25FC
:100888000F01131D47495B557F71636DD7D9CBC5E0
:10089800EFE1F3FDA7A9BBB59F91838D20222A2BF9
:1008A8002C5B3D5D7C7F000000040002000180009D
:1008B8004000200010000800040002000000008032
:1008C8000040002000100008004000200010000830
:1008D800000400021027E80364000A000100001069
:1008E80000011000010003030302020C00080001CC
:1008F800000642595445532F4249545320504F52F1
:100908002044454349465241523A2025692F2569DA
:100918000A004E554D45524F20444520424C4F51F8
:100928005545533A2025690A00424C4F434B202530
:10093800692F2575004D4F554E54494E4700445276
:1009480049564520464F554E44210057454C434F84
:100958004D45210A43484F4F534520414E204F50A3
:1009680054494F4E2046524F4D204F5552204D4529
:100978004E550A0A00312E204349504845520A0074
:10098800322E2044454349504845520A00332E2010
:100998004348414E4745204B45590A000A0A5459D5
:1009A8005045204E414D45204F462046494C452054
:1009B800285749544820455854454E53494F4E29C5
:1009C8003A000A0A54595045204E414D45204F4699
:1009D800204F55545055542046494C4520285749D6
:1009E80054484F555420455854454E53494F4E2965
:1009F8003A002E6165730052454144494E472E2EF8
:100A08002E0050524F43455353494E472E2E2E0029
:100A1800424C4F434B2025690042595445532F42BD
:100A28004954532043595048455245443A20256972
:100A38002F25690A004E554D424552204F46204207
:100A48004C4F434B533A2025690A00544F54414CAC
:100A58002054494D453A2025660A004359504845D7
:100A6800522054494D453A2025660A0046494C45CE
:100A78002053415645440046494C45204E4F54208A
:100A8800464F554E44000A0A54595045204E414D90
:100A980045204F462046494C452028574954484F41
:100AA800555420455854454E53494F4E29005752E6
:100AB8004F4E4720494E5055540057454C434F4DD3
:100AC80045210A20504C4541534520454E54455236
:100AD80020544845204E414D45204F462054484516
:100AE8002046494C45205749544820544845204BF6
:100AF800455920282E747874204E4F204558544567
:100B08004E53494F4E290A0A002E747874004649FC
:100B18004C4520464F554E440052454144494E47A6
:100B280020202E2E2E004B4559205245414400448A
:100B380052495645204E4F5420464F554E440000CA
:100B480001000400EBFE904D53444F53352E300006
:100B58004E4F204E414D45202020204641543332EF
:100B6800202020004E4F204E414D45202020204679
:100B780041542020202020002A00000953090B009E
:100B88002A097D090D00350988090F0042099509D0
:100B980026005109A40930007709CA090500A709E8
:100BA800FA092800AC098E0A0C00D409B60A4F00CD
:100BB800E009C20A05002F0A110B01004A0F480B71
:100BC80001004E0F4A0B0000F894EE27EFBBF1E04E
:100BD800F5BFE5BF8DE0A2E0BB27ED938A95E9F765
:100BE80080E090E2A0E0B1E0ED930197E9F7E0E85A
:100BF800FBE085919591009761F0A591B5910590DD
:100C08001590BF01F00105900D920197E1F7FB01E6
:100C1800F0CF8BBFE0E0EEBBEFEFEDBFE0E2EEBF61
:100C2800C0E0D9E00C946E092C978CE0A0E0B0E00D
:100C3800EEEEF8E00E9415280A93849A859A809A25
:100C4800819A829A839AA2E3B0E00E942C2600E05F
:100C58000C3058F40E942221E02FF0E00E94262157
:100C6800AC910E942B210F5FF3CFECE0E093380AA0
:100C7800A091380A21D008812D9608958C9A8C98D5
:100C88000895AA93E881E87011F08B9A01C08B98B7
:100C9800E881E47011F08A9A01C08A98E881E270CC
:100CA80011F0899A01C08998E881E17011F0889A59
:100CB80001C0889821960895AA930A938D980E9456
:100CC80022210E942F210E943621D8DF08814BC0A3
:100CD800AA930A938D9A0E9422210E942F210E9492
:100CE8003621CCDF08813FC00E943D21E02F0F5FF5
:100CF8000E944221A491ECDFE02F0E944221E4915E
:100D0800E030A1F72DC10E943D21E02F0F5FA9819E
:100D1800BA81F0E0AE0FBF1FAC91DADF0E94482124
:100D2800E03099F71DC1A1E0C7DF0895AA93E881D3
:100D3800F0E0309719F4A981A05814C0E130A0E080
:100D4800FA0719F4A981A0540DC0E230A0E0FA070F
:100D580019F4A981AC5606C0E330A0E0FA0719F4EB
:100D6800A981AC52A9DF22960895AA930A930A8111
:100D7800E9810E1798F4A02FBB27EA81F0E00E94C2
:100D88004F21AB81BC81EA0FFB1F0F01AD81BE81F2
:100D98000E945421D001EC930F5FEACF0881279677
:100DA80008950E945921AA81BB810C9110E013304B
:100DB80068F4E12F0E945E21E12FF0E03196AA81CC
:100DC800BB810E946521EC931F5FF1CFEA81FB8113
:100DD800038319811FC0AA930A93AA81BB81E1DF0B
:100DE80000E0043058F4E02F0E945E21AA81BB8104
:100DF8000E9454210E946A210F5FF3CFAA81BB8110
:100E08000A2EAC91E981F0E0E856FD4FE491EA271B
:100E1800A02DEC93088124960895BA93AA93249759
:100E28000E940A2800E111E020E0203178F4E22F46
:100E3800AF81B8850E947121A985BA85EE27A20FD6
:100E4800BE1FEC91D001EC932F5FEFCF003B08F071
:100E580045C020E02430C8F4E22FF0E0DE0113960C
:100E6800EA0FFB1FBF01A22FBB27EE27A00FBE1F53
:100E7800E4E0F0E00E944F21AF81B885AE0FBF1FBC
:100E8800EC91DB01EC932F5FE5CFA02FBB27E0E1CE
:100E9800F0E00E949D27309729F40E947621A12F27
:100EA8009ADF1F5F20E02430C0F4E02FAF81B885BF
:100EB800F0E0EA0FFB1FBF01E02FF0E07097AE0FE4
:100EC800BF1F0C90E22FF0E0DE011396AE0FBF1F9C
:100ED8000E947B210F5F2F5FE6CFB8CF0E941128B9
:100EE8002B9608950E948021003130F40E948721BA
:100EF800D001EC930F5FF8CF00E0043010F510E05C
:100F08001430E8F4E4E0E09FF001DF01E12FF0E0C5
:100F1800EA0FFB1FAA89BB89EA0FFB1FBF01A02F9D
:100F2800BB27E4E0E19FF001EA0FFB1FDE01129608
:100F3800AE0FBF1FEC91DB01EC931F5FE1CF0F5F9A
:100F4800DCCF63C00E943D21003150F4E02F0E94A5
:100F580042210F010E9448210E946A210F5FF4CFAD
:100F68000881239608950E948021003130F40E9460
:100F78008721D001EC930F5FF8CF11E0143008F00F
:100F880044C0E12FEE0FEE0F0E2FE4E0E19FF001D9
:100F98003496A02FB0E0AE17BF07ACF5A02FBB2743
:100FA800E4E0E19FF001AE1BBF0BBD010E9491215F
:100FB8006E177F0784F4E02FAA89BB890E947121EC
:100FC800A02FBB27E12FF0E0EA0FFB1FDE011296EE
:100FD8000E94652115C0E02FAA89BB89F0E0EA0FBD
:100FE800FB1FCF01602F77270E949121DF01FB01B2
:100FF800EA1BFB0BDE011296AE0FBF1FEC91DC0162
:10100800EC930F5FC2CF1F5FB9CF19810881649637
:101018000895BA93AA9360970A9300E0003178F490
:10102800E02FF0E0DE011196EA0FFB1F0F01A989FE
:10103800BA890E945421D001EC930F5FEFCF00E0F2
:10104800043008F05AC0E02FF0E030960E94962154
:101058000E949E2134960E9426210E94A62138963D
:101068000E9426210E94AF213C960E9426210E94C0
:101078007B21E02FF0E034960E9496210E949E2169
:1010880038960E9426210E94A6213C960E9426217D
:101098000E94AF2130960E9426210E947B21E02FDA
:1010A800F0E038960E9496210E949E213C960E946C
:1010B80026210E94A62130960E9426210E94AF2157
:1010C80034960E9426210E947B21E02FF0E03C9676
:1010D8000E9496210E949E2130960E9426210E94FD
:1010E800A62134960E9426210E94AF2138960E949C
:1010F80026210E947B210F5FA3CF08816396089564
:101108000E943D21003190F4E02FAB81BC81F0E0DA
:10111800EA0FFB1FBF01EE27A00FBE1F0C900E9415
:101128004821E025DB01EC930F5FECCF0881259681
:101138000895BA93AA9360970A930E94B421E0E0B5
:10114800EA93A0E10E94B92101E00A3090F40E94DC
:10115800C721AB89BC895DDF0E94B421A0E10A02E6
:101168000A920A02F001E05FAE2F0E94B9210F5FD8
:10117800ECCF0E94C7210E94B421E0EAEA93A0EBD9
:101188000E94B921088165960895BA93AA93A497F5
:101198000E940A280BA51CA50E94CF21ABA5BCA5BF
:1011A800EA0FFB1F0E171F0750F4F801AFA1B8A5EF
:1011B800AE0FBF1FE0E0EC930F5F1F4FEDCF00E0D5
:1011C80010E0EBA5FCA50E171F0770F5EDA5FEA511
:1011D800FA93EA93FE017996FA93EA930A93A02F79
:1011E800A05FC3DDFE017796FA93EA93ABA5BCA591
:1011F800A0DF202FF8017096A22FB0E0AE17BF072E
:1012080080F4E22FAFA1B8A50E947121E22FF0E08F
:10121800E01BF10BDE0157960E946521EC932F5FCE
:10122800E9CF005F1F4FCDCF0E94CF21ABA5BCA552
:10123800EA0FFB1F0E941128AF9608950E94D6213D
:10124800ABE3BAE021C00A921A92FA926A937A93AF
:101258008A939A93AA93BA93EA93FA93EFB7EA9385
:101268000E94FE0FE991EFBFF991E991B991A99117
:101278009991899179916991F990199009901895A6
:101288000E94D621A9E3BAE0ED91FD913196FE9333
:10129800EE93E991EFBFF991E991B991A991189568
:1012A800E3E009C0E0E0E093390AE0933A0AE0930A
:1012B800B2000895E0E0E093B1000895E3E008C0CB
:1012C800E0E0E0933B0AE0933C0AE6BD0895E0E0E5
:1012D800E5BD0895EF97E397D650E0E8E093610005
:1012E800E0E0E0936100EDEEE4B9E2E0E4BDE3E0C4
:1012F800E5BDE0E0E6BDECE7E7BDE0E0E8BDE2E043
:10130800E0936E00E9E0E0938100E7E2E093890072
:10131800E0E1E0938800E2E0E0936F00E0E0E09332
:10132800B600E2E0E093B000E3E0E093B100E0E073
:10133800E093B200E9EFE093B300E0E0E093B4009B
:10134800E2E0E09370000E94DD210E941806E2E0CE
:10135800E093C800E8E1E093C900E6E0E093CA0042
:10136800E0E0E093CD00E7E6E093CC0078940E94BB
:10137800E521ADE3B9E0B8DCA0E0F0D2A8ECB0E03C
:101388000E942C26E0E0EA93DE01AF5BBB4F0E948F
:101398007D190E2FE03009F079C10E94E521A6E4FD
:1013A800B9E00E94EA21A091430AA13009F015C1D1
:1013B800A0E0B9E00E94A51EAAE2B9E00E94A51E1D
:1013C800A5E3B9E00E94A51EA2E4B9E00E94A51E0B
:1013D8000E94941EE093420AF0E0E133A0E0FA078D
:1013E80009F0E7C00E94DD21A1E5B9E00E94F021E3
:1013F8000E94FA210E9400220E94052209F0D6C00C
:101408000E94E521A4E4BAE07EDCACEDB5E00E94E0
:101418002C26A7E7B9E00E94F0210E940022A7EA43
:10142800B9E00E94F820FE01FA93EA930E94002294
:101438000E94052209F0B2C00E94E521A4E4BAE0A6
:1014480062DCA4E4BAE00E94A51EACEDB5E00E94FF
:101458002C2669DC0E94E521AFEFB9E00E94EA2161
:1014680062DC0E94E521AAE0BAE00E94EA21E6E7F0
:10147800FAE0FA93EA93A6E8BAE0CFDC11DF0E941B
:10148800FA210E940B220E941022E0E0E0933F0A1A
:10149800E093400AA0913D0AB0913E0AA030E1E0F5
:1014A800BE0709F041C0AFE3BAE00E94182206DF88
:1014B8000E940B22E0913D0AF0913E0AFA93EA93CA
:1014C800E6E8FAE0FA93EA93AAE4BDE05EDEFFDE1E
:1014D800E0913D0AE093410AFE01FA93EA93EAE4B7
:1014E800FDE0FA93EA93E091410AF0E0FA93EA9377
:1014F800ADE3BAE00E944E1C0E94FA210E940B2222
:101508000E941022E6E3FBE0FA93EA93E8E1FAE0AE
:101518000E941E2284E00E94642028960E942C22A9
:10152800A6E3BBE0F0DBB6CFC5DEE1E2FAE00E945D
:101538001E22A0913F0AB091400AE0E10E945F2775
:101548000E941B27662777270E94DC2788E00E94D5
:101558009A202A96EDE3FAE00E941E220E94312288
:10156800E3E5FAE0FA93EA93E091390AF0913A0A4E
:101578000E943622E3E6FAE0FA93EA93E0913B0A06
:10158800F0913C0A0E9436220E944522A4E7BAE064
:101598000E94EA21DE010E94482202C00E944E22D7
:1015A800DE01A05EBD4F0E94841E02C00E944E2232
:1015B80013C0E233A0E0FA0719F4ACEAB9E00AC0B4
:1015C800E333A0E0FA0721F4E0E0E093430A04C023
:1015D800A4EDB9E00E94A51E58C0A0EEB9E00E9493
:1015E800F0210E940022AFE2BAE00E94F8200E9497
:1015F800FA210E9400220E94052209F044C00E949C
:101608002C22A6E1BBE00E94EA210E944522A1E229
:10161800BBE00E94EA210E94FA210E940B22E0E12D
:10162800F0E0FA93EA93ADE3BAE00E94E31AA091DE
:101638003D0AB0913E0A509701F5E0E0E093410A77
:10164800A091410AA03180F4B0E0AA58B54FE091CA
:10165800410AF0E0E65BF44FE081EC93E091410A47
:10166800EF5FE093410AECCFE1E0E093430A0E9488
:101678004522AEE2BBE00E94EA21DE01A05EBD4F3A
:101688000E94482202C00E944E228DCEA7E3BBE0F2
:101698000E947806E0E0EA93A0E0B0E00E947D199D
:1016A800FFCFFFCFAA930E94092830E01C81AD81AB
:1016B800BE812D91AD83BE8308E0330FE32FE2276F
:1016C800E07811F0E9E03E27220F0150B1F7115000
:1016D80071F7E32FEE0FE1600E9410283EC50A93D0
:1016E800E2E3E0934C0FEFEFEEBDEDB5E7FFFDCF82
:1016F800EFEFEEBDEDB5E7FFFDCF0EB50F3F21F0E3
:10170800E0914C0FE03009F401C0F2CFE02FA6C4FD
:10171800289AEFEFEEBDEDB5E7FFFDCF0895BA9338
:10172800AA930E940A28E4E1E0934B0FEFEFEEBD85
:10173800EDB5E7FFFDCF0EB50F3F21F4E0914B0F5C
:10174800E03009F401C0F2CF0E3F21F0E0E00E9442
:10175800112803C51D812E81EFEFEEBDEDB5E7FF22
:10176800FDCF2F931F931F5F2F4FEEB5AF91BF9102
:10177800EC93EFEFEEBDEDB5E7FFFDCF2F931F9391
:101788001F5F2F4FEEB5AF91BF91EC93EFEFEEBD1A
:10179800EDB5E7FFFDCF2F931F931F5F2F4FEEB5DA
:1017A800AF91BF91EC93EFEFEEBDEDB5E7FFFDCF45
:1017B8002F931F931F5F2F4FEEB5AF91BF91EC93FF
:1017C800EB81FC813497EB83FC8331F6EFEFEEBDC0
:1017D800EDB5E7FFFDCFEFEFEEBDEDB5E7FFFDCFD0
:1017E800E1E00E941128B9C4AA930E94092877DF72
:1017F800EF3F21F0E0E00E941028AFC4EC81EEBD7D
:10180800EDB5E7FFFDCFAC81AD3F69F110E02D816B
:101818003E81D9012F5F3F4FEC91EEBDEDB5E7FF5B
:10182800FDCFD9012F5F3F4FEC91EEBDEDB5E7FF3E
:10183800FDCF115071F7EFEFEEBDEDB5E7FFFDCF2E
:10184800EFEFEEBDEDB5E7FFFDCFEFEFEEBDEDB588
:10185800E7FFFDCF0EB5E02FEF71E53021F0E0E0B6
:101868000E9410287AC4E1E00E94102876C40E94E1
:10187800E1271A930A93EE81E07881F0EE81EF7701
:10188800EE83E7E7EA93A0E0B0E080E090E0EFDFE6
:101898001E2F123018F0198108815FC4AE81AC3454
:1018A80049F036DF28981BDFEF3F21F0EFEF198171
:1018B800088153C4EE81EEBDEDB5E7FFFDCFED81A4
:1018C800EEBDEDB5E7FFFDCFEC81EEBDEDB5E7FF71
:1018D800FDCFEB81EEBDEDB5E7FFFDCFEA81EEBDB3
:1018E800EDB5E7FFFDCF01E0AE81A03411F405E9C5
:1018F80004C0AE81A83409F407E80EBDEDB5E7FFD2
:10190800FDCFAE81AC3429F4EFEFEEBDEDB5E7FFC6
:10191800FDCF0FEFEFEFEEBDEDB5E7FFFDCF1EB545
:1019280017FF02C0015009F401C0F4CFE12F19815B
:10193800088113C4BA93AA930A9304E0EFEFEEBDAB
:10194800EDB5E7FFFDCFA981BA811196A983BA83C6
:101958001197EEB5EC93015089F7E6C4AA93249742
:101968000E940A28EF81E03021F0E1E00E9411286E
:10197800AAC124982598EAE0E0934B0FE0914B0F19
:10198800E030E1F7E0914A0FE27029F0E0914A0F68
:101998000E94112898C1209A289AE5B1E97FE5B9F3
:1019A8002B9A2398E4B1E760E4B9E3E5ECBDE0E005
:1019B800EDBD2FEF0AE0EFEFEEBDEDB5E7FFFDCF90
:1019C8000150C9F7E0E4EA93A0E0B0E080E090E0DD
:1019D8004EDF1E2F2150113011F0203009F401C0C4
:1019E800E9CF20E0113009F068C0E4E6E0934B0F3E
:1019F800E8E4EA93AAEAB1E080E090E038DFE13079
:101A080091F5DE01139696DFAD81A13019F4AE8110
:101A1800AA3A09F027C0E0914B0FE03049F0E9EE0F
:101A2800EA93A0E0B0E080E090E421DFE03009F440
:101A380001C0F1CFE0914B0FE03049F0EAE7EA93BB
:101A4800A0E0B0E080E090E012DFE03009F00AC0EA
:101A5800DE0113966FDFEB81E07411F0ECE001C05A
:101A6800E4E02E2F2AC0E9EEEA93A0E0B0E080E09F
:101A780090E0FDDEE23018F422E019EE02C021E029
:101A880011E4E0914B0FE03041F01A93A0E0B0E090
:101A980080E090E0ECDEE03009F401C0F2CFE091A4
:101AA8004B0FE03049F0E0E5EA93A0E0B2E080E0D7
:101AB80090E0DDDEE03009F020E020934D0F28DED5
:101AC800203041F0E0914A0FEE7FE0934A0FE0E5C5
:101AD800ECBD11C0289803DE1BDEE0E0ECBDE4B1EC
:101AE800E07FE4B9E5B1E07FE5B92098E0914A0FDD
:101AF800E160E0934A0FE0914A0F0E941128E3C089
:101B0800AA93E881E03011F0E1E002C0E0914A0FC9
:101B180021960895AA93EF81E03019F4E881E03026
:101B280011F4E4E0D0C0E0914A0FE17011F0E3E075
:101B3800CAC0E0914D0FE87071F4E981FA816B81B8
:101B48007C81A0E0B2E080E090E00E943F27E9833A
:101B5800FA836B837C83A881A130A9F4E1E5EA9339
:101B6800AA81BB818C819D8182DEE03059F4ED81B0
:101B7800FE81FA93EA93A0E0B2E0D1DDE03011F003
:101B8800E0E0E88323C0E2E5EA93AA81BB818C8187
:101B98009D816DDEE030D1F4ED81FE81FA93EA9308
:101BA800A0E0B2E0BCDDE03051F0ED81FE81E05014
:101BB800FE4FED83FE83E881E150E88369F7ECE4AA
:101BC800EA93A0E0B0E080E090E051DEA1DDE8819A
:101BD800E03011F0E1E001C0E0E075C0AA93EF81C8
:101BE800E03019F4E881E03011F4E4E06CC0E091F1
:101BF8004A0FE17011F0E3E066C0E0914A0FE4702B
:101C080011F0E2E060C0E0914D0FE87071F4E981F5
:101C1800FA816B817C81A0E0B2E080E090E00E94D4
:101C28003F27E983FA836B837C83A881A130A1F4E1
:101C3800E8E5EA93AA81BB818C819D8118DEE030BA
:101C480051F4ED81FE81FA93EA93AEEFCDDDE030F9
:101C580011F0E0E0E88330C0E0914D0FE67039F014
:101C6800E7EDEA93A981BB278827992700DEE9E5F4
:101C7800EA93AA81BB818C819D81F9DDE030E1F492
:101C8800ED81FE81FA93EA93ACEFAEDDE03051F0DE
:101C9800ED81FE81E050FE4FED83FE83E881E15047
:101CA800E88371F7E0E0F0E0FA93EA93ADEF9CDDAA
:101CB800E03011F4E1E0E8832BDDE881E03011F059
:101CC800E1E001C0E0E028960895BA93AA936097EE
:101CD8000E940928EF89E03011F0E4E087C1E09123
:101CE8004A0FE17011F0E3E081C101E0EE89E030D4
:101CF80031F42898F4DCEF3F09F400E075C1E130D5
:101D080009F05FC0E9E4EA93A0E0B0E080E090E089
:101D1800AEDDE03049F4FE013496FA93EA93A0E18F
:101D2800B0E0FDDCE03009F44BC0EC81E295EF70E7
:101D3800E695E695E13079F4E0E0FC85AD85B0E024
:101D4800EA0FFB1F31961E2F2F2FA12FB22F8827A6
:101D58009927EAE02EC0E985EF70AE2FEE85E0788E
:101D6800EE1FE0E0EE1FAE0FED85E370EE0FEA0F19
:101D7800EE5F3E2FEC85E295EF70E695E695AE2F87
:101D8800EB85F0E00E941D27B0E0AE0FBF1FEA858B
:101D9800E370F0E00E941D27FE2FE0E0EA0FFB1F32
:101DA80031961E2F2F2FA12FB22F88279927E32F87
:101DB800E9500E940127AC89BD890E94BA2700E03A
:101DC80013C1E23041F4AC89BD89E0E0F2E0ED9363
:101DD800FC9300E009C1E33009F0ABC0E0914D0F7E
:101DE800E47081F1EDECEA93A0E0B0E080E090E0EF
:101DF8003EDDE03031F5EFEFEEBDEDB5E7FFFDCFAD
:101E0800FE013496FA93EA93A0E1B0E088DCE03072
:101E1800C1F030E3303039F0EFEFEEBDEDB5E7FF5C
:101E2800FDCF3150F7CFEE85E295EF70A0E1B0E03D
:101E380080E090E00E940127AC89BD890E94BA2702
:101E480000E076C0E9E4EA93A0E0B0E080E090E04A
:101E58000EDDE03009F06CC0FE013496FA93EA9387
:101E6800A0E1B0E05CDCE03009F462C0E0914D0F25
:101E7800E27051F1EE85EF73FF27662777270E94FE
:101E88002B277F936F93FF93EF93EF85E078FF27DE
:101E980066277727DF01CB01E7E00E940D27AF9186
:101EA800BF918F919F910E94DC26EF5FFF4F6F4F8C
:101EB8007F4FDF01CB01E989E295EF70E695E69562
:101EC800E1500E9401272FC0EE85EC77E695E69554
:101ED800FF2766277727EF5FFF4F6F4F7F4F7F936F
:101EE8006F93FF93EF93EF85E370FF2766277727BC
:101EF800DF01CB01E3E00E940127DF01CB01EF8581
:101F0800E07EE295EF70E695FF27662777270E9427
:101F1800DC26EF5FFF4F6F4F7F4FAF91BF918F91DF
:101F28009F910E943F27AC89BD890E94BA2700E093
:101F38005BC0EA3039F4E0914D0FAC89BD89EC9370
:101F480000E052C0EB3011F439E403C0EC3001F585
:101F58003AE43A93A0E0B0E080E090E088DCE0303A
:101F6800B1F4EC89FD89FA93EA93A0E1B0E0D7DBFC
:101F7800E03069F0EC89FD89FA93EA93AFE092DBEF
:101F8800AE2FEC89FD89E785EA1709F400E02CC03B
:101F9800ED3071F4EAE7EA93A0E0B0E080E090E089
:101FA80066DCE03021F4AC89BD89C4DC00E01CC0EB
:101FB800EE30C9F4EDECEA93A0E0B0E080E090E008
:101FC80056DCE03079F4EFEFEEBDEDB5E7FFFDCF7D
:101FD800EC89FD89FA93EA93A0E4B0E0A0DBE03055
:101FE80009F000E001C004E093DBE02F0E94102814
:101FF800689608950A9300914B0F003019F001502C
:1020080000934B0F00914C0F003019F001500093D2
:102018004C0F00914E0FE0E0E0934E0F1C9903C067
:10202800E1E0E0934E0F1D9B05C0E0914E0FE2608A
:10203800E0934E0FE0914E0FE01781F400914A0FA4
:10204800E17011F00D7F01C00360E0914E0FE27066
:1020580011F0046001C00B7F00934A0F09910895A5
:102068002797A091340AB091350A109731F0A091C2
:10207800360AB091370A109729F4E0E0F0E061E2FF
:102088007AE36BC0FE013696FA93EA93FE0137961F
:10209800FA93EA93DE011896E091340AF091350A32
:1020A80009950E947621FE013496FA93EA93DE019F
:1020B8001496E091360AF091370A0995E881F9817A
:1020C800EC5BF74066277727DF01CB01E9E10E9447
:1020D80001277F936F93FF93EF93EA810E94522227
:1020E800E5E10E940127AF91BF918F919F910E94D6
:1020F800F026DF01CB01EB81F0E00E943A270E9435
:1021080035270E94F0267F936F93FF93EF93EE811C
:102118000E945222EBE00E940127AF91BF918F915C
:102128009F910E94F0267F936F93FF93EF93ED8129
:102138000E945222E5E00E940127AF91BF918F9142
:102148009F910E94F026DF01CB01EC81F0E0F5952C
:10215800E7950E943A270E94F02627960895AA93A9
:102168000A93EA81FB81E4910E2FE03019F0E981AE
:10217800E01709F406C0EA81FB813196EA83FB8304
:10218800F0CFE02FF0E00881249608950E94E1271F
:1021980024970A93A985BA859E960E94AF270E9424
:1021A80058220E945D220E9462220E94FD2709F4A3
:1021B80052C0E985FA85E481E03089F10E946722FE
:1021C800E03011F0E1E027C2A985BA851496E0E075
:1021D800EC93E985FA850E9479220D01A985BA85D3
:1021E8005A960E94AF27D0010E94DC260E946222E4
:1021F8000E940228A0F4E985FA850381023078F06C
:10220800A985BA855A960E94AF270E9462220E9429
:10221800DC260E9458220E9467220150EFCF0E94BC
:102228005D220E94F327B9F0E985FA85A181AA9376
:10223800EA85FB85F296FA93EA930E947E220E9431
:10224800832211F0E1E0E7C10E945D22A985BA85E9
:102258009E960E94BA27E0E0DEC1BA93AA930A9339
:10226800E981FA810E948A220E2F003009F05BC0B2
:10227800A981BA81AC91A33029F4E981FA81E58179
:10228800E03009F444C0A981BA810E949222E98110
:10229800FA810E949A22E981FA81F296E250FE4F71
:1022A800A5E5BAEAA083B183E981FA81F296A2E5AD
:1022B800B2E581E691E40E94A322EC51FE4FA2E729
:1022C800B2E781E491E60E94A322E851FE4F0F0194
:1022D800A981BA811E960E94A922F296E451FE4F66
:1022E8000F01A981BA811A960E94A922A181AA93F5
:1022F800EA81FB81F296FA93EA93EC81FD810E94D0
:10230800B1226CDCA981BA811596E0E0EC93E981F1
:10231800FA81A181AA93E0E0EA93A0E0B0E0D5DCDD
:10232800E03009F001E0E02F0881239608950E942B
:10233800E12724970E9409280E94B9220E94BE2200
:1023480050F0AC85BD855E960E94AF270E94B922E9
:102358000E94022818F00E94C62260C0AC85BD8584
:1023680092960E94CB22AC85BD85EC91F0E0E130DD
:10237800A0E0FA0739F528853985F901F695E7953A
:102388002E0F3F1F0E94D22209F046C00E94E7226A
:102398000C9111272F5F3F4F0E94D222E9F50E942E
:1023A800E722EC91FE2FE0E00E2B1F2BE885E17071
:1023B80021F0F8010E94222702C0F801FF70662769
:1023C80077272CC0E230A0E0FA0779F40E94EF22C8
:1023D8000E94F8220E94FF22F9F4A885B985E2E05C
:1023E8000E9409230E94122319C0E330A0E0FA07D3
:1023F80099F40E94EF220E9417230E94FF2261F4A1
:10240800A885B985E4E00E9409230E94AF27EF7FE1
:10241800FF7F6F7F7F7002C00E941E230E941028DA
:102428002E9608950E94E12724970E9408280E946A
:1024380023230E94BE2250F0A989BA895E960E9481
:10244800AF270E9423230E94022810F042E085C093
:10245800A989BA8992960E94AF27ED83FE836F837C
:102468007887A989BA89EC91F0E0E130A0E0FA0711
:1024780009F043C00D851E85F801F695E7950E0F06
:102488001F1F0E94282309F063C00E943E2351F0B9
:10249800D901EC91EF70AE2FE985F0E00E94192781
:1024A800EA2B01C0E985D901EC930F5F1F4FA98979
:1024B800BA891496E1E0EC930E94282309F048C0F9
:1024C8000E943E2349F00E944923E4E00E940D2720
:1024D800FF27662777270EC0D901EC91E07F1E2ED3
:1024E8000E944923E8E00E940D27FF2766277727E7
:1024F800EF70E129D901EC932BC0E230A0E0FA0794
:1025080089F40E944E230E94F8220E94572301F565
:10251800AD85BE85E2E00E946223A985BA85A083C5
:10252800B18316C0E330A0E0FA0789F40E944E2375
:102538000E9417230E94572359F4AD85BE85E4E015
:102548000E9462230E9449230E94D72701C042E0CB
:10255800A989BA891496E1E0EC93E42F0E940F2828
:10256800639608950E94E12724970A930E946B239B
:102578000E94BE2218F00E94702310F002E04AC0A8
:1025880000E00E94702308F045C0E985FA85FA93B7
:10259800EA93AF81B88589859A85C9DE0E94582259
:1025A800E981FA816B817C810E94F32799F10E946D
:1025B80062220E94792311F402E02CC00E94622258
:1025C8000E94812311F401E025C0E985FA85FA9378
:1025D800EA930E9489230E94DC270E948E2322DF2F
:1025E8000E2F0030B9F4E985FA850E94932349F04B
:1025F800A985BA850E949823A985BA851596E1E030
:10260800EC93E981FA816B817C81ED83FE836F8392
:102618007887B7CFE02F08812B9608950E94E1278D
:102628006097AC89BD895E960E94AF270E94A2235D
:102638000E94A5230E94F327B1F4AC89BD891A969C
:102648000E94CB220E94AA230E94F72739F00E94F9
:10265800AF230E94AA230E94022820F00E94C622CB
:102668000E94B2231EC00E94B723AA89BB898C8905
:102678009D890E94BC230E94C3230E94BE2218F495
:102688000E94C62290C00E94AF230E94C3230E94CA
:10269800022818F40E94C82386C00E94A5230E941D
:1026A800B2230E94CD230E94D2230E947E22EF5F94
:1026B800FF4F6F4F7F4F0E94D2230E94AF230E948B
:1026C800B9220E94022860F0E2E0F0E060E070E0E9
:1026D8000E94D2230E94D72318F40E94DC2363C0EF
:1026E8000E94B723AA85BB858C859D850E94BC2343
:1026F8000E94C8230E94F327A1F00E94C3230E94CE
:10270800812329F00E94C3230E94792319F40E948F
:10271800C82349C00E94D72319F40E94DC2343C070
:10272800C4CF0E94B7230E94E123AFEFBFEF8FEF22
:102738009FE078DEE03019F00E941E2334C00E942A
:10274800A5230E94F32791F00E94B723EA89FB8909
:102758006C897D890E94DC27AE85BF858889998927
:1027680061DEE03019F00E941E231DC00E947E2207
:10277800AC89BD891A960E94BA27EC89FD890E9406
:10278800932379F0AC89BD891E960E94B5273197AD
:10279800604070400E94BF27AC89BD891596E1E072
:1027A800EC930E947E22669608950E94E1270E947B
:1027B800AF23E250F040604070400E94A223EC81B9
:1027C800FD81A68DB78D80A191A1E2E0F0E060E0E7
:1027D80070E00E94E8230E94CD270E94022818F08A
:1027E8000E94DC236CC3EC81FD81E281F0E00E9451
:1027F800CD270E943A270E943F277F936F93FF932C
:10280800EF93AC81BD819A960E94AF27AF91BF919B
:102818008F919F910E94DC2652C3BA93AA93249762
:102828001A930A93EE81FF810E94ED2316960E9467
:10283800F5230E94FC230E94792329F00E94012499
:102848000E94062420F0E2E0198108815FC10E94FD
:102858000E2429F40E940124A081A33009F006C0A7
:102868000E940124B696DF010E94F5230E940E24DF
:10287800B1F40E9415243896DF010E94AB27AE817F
:10288800BF81AE17BF0720F0E2E0198108813EC181
:102898000E940124B696DF010E94AF273BC00E9428
:1028A8000124E281A0E1EA9F8001AE81BF81A017E7
:1028B800B10748F10E940124FA93EA930E94AA23DF
:1028C80036DDEA83FB836C837D830E94FC230E94B0
:1028D800812321F4E1E01981088118C10E94FC23B9
:1028E8000E94BE2228F00E9401240E94062420F0A3
:1028F800E2E0198108810AC1EE81FF81E01BF10B3A
:10290800EE83FF83D2CF0E941524FA93EA930E94A4
:10291800AA234BDFDF01CB01EE81FF810E94222732
:102928000E941F240E9424240E940124F296DF01A1
:10293800EE81FF810E942A2419810881E7C0AA93A9
:1029480024970E940A28A885B98514960E94AB2767
:1029580031968F01002E012A31F0A885B9851E967F
:102968000E94382411F4E4E0CFC0F801EF7009F0B8
:10297800C1C0A885B9850E949823A885B9851A96EB
:102988000E94382461F40E9401243896DF010E94D5
:10299800AB270E171F0710F0E4E0B6C0ABC0F80174
:1029A8000E9422270F010E940124E281F0E0319762
:1029B800E021F121309709F09DC00E9401240E9476
:1029C8003D24B5DC0E9446240E944B240E94BE226E
:1029D80010F4E2E099C00E944B240E94812311F474
:1029E800E1E092C00E9401247E96DF010E94AF2799
:1029F8000E944B240E94022808F46DC0EF81E03049
:102A080011F4E4E081C00E9401240E943D2406DE06
:102A18000E9450240E94F32711F4E7E075C00E9439
:102A28004B240E94792311F4E2E06EC00E944B24EB
:102A38000E94812311F4E1E067C00E9401240E94F2
:102A48008A22E03011F0E1E05FC00E9401240E9478
:102A58009A220E940124DF01BE96FF93EF93FD01A5
:102A68000E945624AF91BF910E94BA2720E00E948D
:102A78000124E2812E17D8F40E9401243496A1E0A3
:102A8800A0830E9401240E948A22E03011F0E1E034
:102A98003BC00E940124BE96DF010E94B527EF5F6C
:102AA800FF4F6F4F7F4F0E94BF272F5FE0CF0E94DD
:102AB8000124BE96FF93EF93DF010E94AF27DF0149
:102AC800CB01E22FF0E00E943A270E94E823AF9161
:102AD800BF910E94BA27EB81FC816D817E81A88518
:102AE800B9851A960E94BA270E9401240E9456248A
:102AF8000E942424F8010E94ED230E94AB27F2963D
:102B0800DF01F8010E942A240E9411282A960895BC
:102B18000E945B2421F0E02F0E941028D0C10E945F
:102B28006A2401F5AC81BD8152962D913C91D90161
:102B38001C91103011F404E015C0F901E385E87028
:102B480031F40E947B240E94BD20E03009F001C0CE
:102B580009C0EC81FD81FA93EA93A0E0F0DE0E2F24
:102B68000030E9F2E02F0E941028A9C10E945B24DE
:102B7800B1F40E946A2499F4EC81FD81A289B38999
:102B88001C91153E11F0103009F409C0EC81FD814B
:102B9800FA93EA93A1E0D3DE0E2F003051F3003010
:102BA80029F50E946A2411F5AC81BD8152962D91B8
:102BB8003C913A932A93E0E0EA93A0E2B0E00E94C5
:102BC800E8200E947B240E94D620AC81BD815496C7
:102BD8000E94AB27E385E871D9011C96EC93AC8180
:102BE800BD810E94AB273496A1E0A083E02F0E940C
:102BF800102865C1BA93AA9325970E940728AD8526
:102C0800BE8554963D914C914A933A93E0E2EA93FB
:102C1800ABE0B0E00E94E820E0E0E887E9870E2F0B
:102C28005E2FE8E0EA87AB85BC850E9486240E9477
:102C38008B24AE0FBF1FAC91AE3211F50E949024C9
:102C48001E3221F4A885B98513970CF003C00E94A1
:102C58009C24F4CF1F3221F01C3511F0113208F4F6
:102C680002C0E6E071C00E948B240E94A32410F4E5
:102C7800E4E201C0E0E2A32FB42F1B96EC9363C0FB
:102C88000E949024113220F01F3211F01C3509F4F3
:102C980032C01E3219F0EA855E1768F0AA85A8309E
:102CA80011F41E3211F0E6E04FC058E0EBE0EA877D
:102CB800000F000F1FC0103818F00360E6E044C092
:102CC800E4EAF8E0FA93EA93A12F49DA309711F091
:102CD800E6E03AC0113410F01B3508F002C002607B
:102CE80007C0113610F01B3708F002C001601052FF
:102CF8000E949C24C5CF0E948B240E94A32410F418
:102D0800E4E001C0E0E01E2F503011F4E6E01CC002
:102D1800A32FB42FAC91A53E21F4A32FB42FE5E047
:102D2800EC93AA85A83011F4000F000FE02FE37090
:102D3800E13009F41061E02FEC70E43009F4186018
:102D4800E32FF42F1387E0E00E940E282F960895B2
:102D5800BA93AA930E940928E1E0E03029F0AC81F7
:102D6800BD81AC91A03209F006C0EC81FD8131969D
:102D7800EC83FD83F1CFAC81BD81AC91AF3229F0FA
:102D8800AC81BD81AC91AC3559F4EC81FD813196B3
:102D9800EC83FD83AE81BF8116960E94AB240AC0E6
:102DA800AE81BF810E94AB277696DF010E94AF27D4
:102DB8000E94AF24AC81BD81AC91BB27909760F491
:102DC8000E94B524A0E0B0E028DD0E2FAE81BF81BF
:102DD80052960E94BA243EC00E94B524DE0116967F
:102DE80009DF0E2F0030B1F5AE81BF8191DE0E2FC5
:102DF800AE81BF8154960E94AB27E385E4703E2FD5
:102E0800003039F0043011F4303009F001C005E029
:102E180021C03030F9F4AE81BF8152961D912C91BA
:102E2800E12FF22FE385E07111F405E013C00E9451
:102E3800BF240E9435277F936F93FF93EF930E94DF
:102E4800C324AF91BF918F919F910E94C9240E9482
:102E5800AF24C2CFE02F0E941028289608950E9420
:102E6800E127EC81FD81A181AA93ED81FE81F29693
:102E7800FA93EA93EB81FC816D817E810E94832223
:102E880011F0E3E01CC0EC81FD810E94CE2411F01A
:102E9800E2E015C0AC81BD81A859BF4F0E94D8247B
:102EA80011F4E0E00CC0EC81FD81F296EE5AFF4F80
:102EB800DF010E94D82411F4E0E001C0E1E0269689
:102EC8000895AA9364970E940828AC8DBD8D0E942E
:102ED800AB27EF83F887AF81B885EC91E0533E2F9D
:102EE8003A3020F41196AC91AA3309F00AC0EF8168
:102EF800F8853296EF83F887AC8DBD8DED93FC9302
:102F080002C03091530F313010F0EBE0CCC1E32F09
:102F18000E94E6240E94AB27ED83FE83AA8DBB8D19
:102F2800ED93FC93309711F4ECE0BDC1AD81BE8107
:102F3800EC91E03089F0ED81FE81A1810E94840D41
:102F48004E2F40FD09C0E98DE03011F042FD01C06F
:102F580002C0EAE0A8C1A6C1AD81BE81E0E0EC9361
:102F6800E32FAD81BE811196EC93ED81FE81A181A5
:102F78000E94B20C4E2F40FF02C0E3E094C1E98DDD
:102F8800E03011F042FD01C002C0EAE08CC10E94AD
:102F9800EE240E94DC23EF8BF88F698F7A8FDF0194
:102FA800CB015DDF0E2F0130D9F4ED81FE81F29661
:102FB800E254FE4F1E2F2F2FE481E03089F0A12F1D
:102FC800B22F18960E94AF27ED8BFE8B6F8B788FF0
:102FD8000E94EE24AF89B88D898D9A8D40DF0E2F1F
:102FE800033011F4E1E05FC1003049F4AD81BE81E6
:102FF800DD960E94AB27E030A2E0FA0711F0EDE081
:1030080052C1AD81BE81A85BBF4F0E9412230E94AE
:10301800F3240E94F8240E94F32741F4AD81BE8175
:10302800AA5ABF4F0E94AF270E94F3240E94F82497
:10303800AD81BE815A960E94BA27ED81FE81EE5B72
:10304800FF4FE081AD81BE811396EC93ED81FE8147
:10305800E381F0E0A989BA898B899C890E943A2783
:103068000E943F270E94F3240E94FD240E94042509
:10307800AD81BE8192960E94BA27ED81FE81E7ADAF
:10308800AD81BE811296EC93AD81BE81AD5BBF4F21
:103098000E94AB27AD81BE811896ED93FC93AD815C
:1030A800BE81AB5BBF4F0E941223ED87FE876F87FF
:1030B800788B0E94F32751F4AD81BE81AE5ABF4F81
:1030C8000E94AF27ED87FE876F87788B0E94FD24CB
:1030D8000E942323662777270E94E823A989BA89B3
:1030E8008B899C890E94E6267F936F93FF93EF93C9
:1030F8000E940925AF91BF918F919F9166277727ED
:103108000E94EB26ED81FE81E281F0E00E943A27E1
:103118000E947827EE5FFF4F6F4F7F4FE987FA874E
:103128006B877C87AD81BE815E960E94BA2701E0DD
:103138000E944923A73FEFE0BE07E0E08E07E0E0EA
:103148009E0708F002E00E944923A73FEFEFBE0761
:10315800E0E08E07E0E09E0708F003E0033039F472
:10316800AD81BE81A25ABF4F0E94AF2702C00E9404
:103178001125AD81BE8196960E94BA270E9411251D
:103188007F936F93FF93EF930E940925AF91BF91AF
:103198008F919F910E941F24AD81BE819A960E94B3
:1031A800BA27AD81BE811E960E941E230E94BA27AF
:1031B800AD81BE811496E0E0EC93033009F05FC066
:1031C800AD81BE811596EC93AD81BE81AE59BF4FDE
:1031D8000E94AB270E940425AD81BE8152960E94B1
:1031E800BA27ED81FE81A181AA93EE81FF81F29633
:1031F800FA93EA93E885F9850E94B1220E948E0D20
:10320800E03011F5ED81FE810E94CE24E9F4AD8114
:10321800BE81D2960E94AF27E235A2E5FA07A1E661
:103228006A07A1E47A0781F4ED81FE81F296EC51F8
:10323800FE4FDF010E94AF27E237A2E7FA07A1E4B9
:103248006A07A1E67A0709F01AC0ED81FE81F296B5
:10325800E451FE4FDF010E94AF27AD81BE811A966F
:103268000E94BA27ED81FE81F296E851FE4FDF01F8
:103278000E94AF27AD81BE811E960E94BA27AD81FC
:10328800BE810C930E949222AD81BE8156960E9407
:10329800AB24A1E5BFE00E941822AD81BE8116963D
:1032A800ED93FC93E0E00E940F286E960895BA9380
:1032B800AA93EA81FB81309771F0AA81BB81EC91D6
:1032C800E03049F0EA81FB81A681B781E881F98184
:1032D800EA17FB0711F0E9E00AC0EA81FB81A18146
:1032E8000E94840DE17011F0E3E001C0E0E0249653
:1032F80008950E945921AC81A13010F0EBE020C064
:10330800EC810E94E6240D911C91002E012A19F0EF
:10331800D801E0E0EC93EA81FB81309721F0AA81A3
:10332800BB81E0E0EC93EC81AFE4BFE0F0E0EE0FAE
:10333800FF1FEA0FFB1FAA81BB81A083B183E0E0D6
:103348001981088125960895AA93A2970E940A28B0
:10335800A8A5B9A50E94BA24EDA1EF71EDA3FE01BD
:10336800B696FA93EA93FE017196FA93EA93E9A561
:10337800EE71AE2FA6DD0E2F003009F01CC1FE0144
:103388003396EBA3FCA3FE013F96FA93EA93A8A514
:10339800B9A5DEDC0E2FEDA1EC7109F49CC02897CD
:1033A800003089F0043021F4DE015796DFDB0E2F60
:1033B800003019F0E02F2896FEC0EDA5E860EDA7D3
:1033C80019A52AA56BC0EDA5E47019F0E8E02896C8
:1033D800F2C019A52AA5012E022A29F0E12FF22F01
:1033E800E385E17119F0E7E02896E5C0EDA5E870FE
:1033F80009F454C00E94BF240E9435277F936F931D
:10340800FF93EF930E94C324AF91BF918F919F9137
:103418000E94C9240E94A223E12FF22F74960E94D1
:1034280018257A960E9418257C960E948E230E9461
:10343800D727AF89B88D1496E1E0EC93AF89B88DA2
:103448009E960E94CB220E94AF230E94F327B9F0D8
:10345800EF89F88DFA93EA930E94FC2383D80E2F04
:10346800003011F02896A7C00E94AF23E150F04029
:1034780060407040AF89B88D1A960E94BA27EF89CC
:10348800F88DFA93EA93AE81BF81888599850E9469
:10349800CA100E2F003011F028968DC0EDA5E870E7
:1034A800C1F0E12FF22F3B96A0E0A0830E943410D8
:1034B8000E94B2230E94CD23A12FB22F1E960E94F4
:1034C800BA27AF89B88D1496E1E0EC93EDA5E062D8
:1034D800EDA728961BC0003011F0E02F6CC019A191
:1034E8002AA1012E022A29F0E12FF22FE385E071AB
:1034F80011F0E4E060C0EDA1E27029F0E12FF22FB5
:10350800E385E17009F402C0E7E055C0AF85B889EA
:103518009E960E94AF27A8A5B9A55A960E94BA27D9
:10352800E9A1FAA1A8A5B9A55E96ED93FC93EDA132
:10353800A8A5B9A51496EC930E94BF240E9435272C
:103548007F936F93FF93EF930E94C324AF91BF9132
:103558008F919F910E94C924A8A5B9A51E960E9483
:10356800BA27A12FB22F5C960E94AF27A8A5B9A5AC
:103578001A960E94BA27A8A5B9A516960E94AB2448
:10358800A8A5B9A51596EFEFEC93A8A5B9A55696E9
:103598000E94AB24EF85F889A8A5B9A5ED93FC9303
:1035A800AF85B88916960E94AB27A8A5B9A512962B
:1035B800ED93FC93E0E00E941128AA960895BA932F
:1035C800AA932E970E940828EF89F88DED83FE8331
:1035D800AB89BC890E94BA240E941F250E94242519
:1035E8000E94292511F0E02F51C1E98DFA8DA4819F
:1035F800A07811F0E2E04AC1E98DFA8DA481A170AA
:1036080011F4E7E043C1E98DFA8DA285B38584857D
:1036180095859F938F93BF93AF930E943025EF9129
:10362800FF916F917F910E94E6260E943725AD8910
:10363800BE89882799270E94FD2720F4EF81F88505
:10364800ED8BFE8BED89FE89309709F41EC10E942F
:103658003025FD01BC01F170309709F0E8C0E98D13
:10366800FA8D05800E941F25E2810E16D8F10E946E
:1036780030250E94F72731F4A98DBA8D1E960E9435
:10368800AF2708C00E941F250E9424250E943C25C0
:103698000E949B11EF87F88B698B7A8BAF85B8896D
:1036A80089899A890E94BE2220F40E944125E2E07D
:1036B800EDC0AF85B88989899A890E94812321F450
:1036C8000E944125E1E0E2C0EF85F88969897A899D
:1036D800A98DBA8D52960E94BA27A98DBA8D1596D2
:1036E800E0E0EC930E941F250E9424250E943C25BF
:1036F8005CD80E9448250E944D250E94F32721F49A
:103708000E944125E2E0C2C00E9452250E9457252E
:103718000E943A270E94DC260E944825AD89BE896E
:103728000E945C2509F44CC00E945225E30FF41F47
:103738000F010E941F25E281D001F0E0EA17FB0784
:1037480058F40E941F25E281F0E0DF010E94522513
:10375800AE1BBF0B3A2F4B2F0E941F25E181EA9326
:103768000E94B524EE85FF85688979890E94DC2747
:10377800A32F0E948E0DE03021F00E944125E1E048
:1037880085C0E98DFA8DA481A07429F00E94652571
:103798000E946C2508F00FC00E9465250E947525BF
:1037A800AD81BE8188279927EA0FFB1F0E94242537
:1037B800B0960E947E25A98DBA8D0E94842551C09D
:1037C800E98DFA8DA481A07489F00E941F250E94BA
:1037D8009125EC8DFD8D0E94992521F00E944125AF
:1037E800E1E054C0A98DBA8D0E94A4250E946525E8
:1037F8000E94FD2779F00E941F250E949125EE85E1
:10380800FF85688979890E94832221F00E944125D9
:10381800E1E03CC00E944D25A98DBA8D56960E94C4
:10382800BA27A98DBA8D1596EC91EF5FEC93A98D07
:10383800BA8D0E94A9250E94AE25ED89FE89E1175F
:10384800F20710F41D892E890E94EE24AB8DBC8DE1
:103858000E94A925AB8DBC8D9096EA0FFB1F0E9494
:10386800B5250E94BB25E98DFA8D0E94C425D0019B
:103878000E94BA27AB89BC890E94CE25ED89FE89B2
:10388800E11BF20BED8BFE8BDDCEE0E00E940F28F2
:103898006B960895BA93AA932A970E940828EB89F1
:1038A800FC89ED83FE83AF85B8890E94BA240E9403
:1038B800D5250E94DA250E94292511F0E02F92C112
:1038C800ED89FE89A481A07811F0E2E08BC1ED8931
:1038D800FE89A481A27011F4E7E084C1ED89FE8914
:1038E800A285B38584859585E989FA890E941F2474
:1038F8007F936F93FF93EF930E94DF25AF91BF9162
:103908008F919F910E94022818F4E0E0E98BEA8BDE
:10391800E989FA89309709F44BC10E94E525FD0130
:10392800BC01F170309709F00DC1ED89FE89058061
:103938000E94D525E2810E1608F450C0AD89BE89D3
:1039480016960E943824E1F4AD89BE891E960E941D
:10395800AF270E9448250E944D250E94F32779F43D
:103968000E94D525FA93EA930E948E230E9412138F
:103978000E944825AD89BE891E960E94BA270AC0B2
:103988000E94D5250E94DA250E943C250E94121328
:103998000E9448250E944D250E94F32709F408C17A
:1039A8000E9457250E94792321F40E94EC25E2E029
:1039B80019C10E9457250E94812321F40E94EC25F9
:1039C800E1E010C10E944D25AD89BE8952960E9442
:1039D800BA27AD89BE891596E0E0EC93ED89FE899A
:1039E800A481A07489F00E94D5250E94F325E88D52
:1039F800F98D0E94992521F00E94EC25E1E0F2C0A2
:103A0800AD89BE890E94A4250E94D5250E94DA2589
:103A18000E943C250E94D9130E9437250E94F32753
:103A280021F40E94EC25E2E0DDC00E94FB25AF8175
:103A3800B88589859A850E943A270E94DC26EF83FB
:103A4800F88769877A87A989BA890E945C2509F469
:103A58004EC00E94FB25E30FF41F0F010E94D525DD
:103A6800E281D001F0E0EA17FB0758F40E94D5255F
:103A7800E281F0E0DF010E94FB25AE1BBF0B3A2F6D
:103A88004B2F0E94D525E181EA930E94B5240E941C
:103A9800E123A32F0E94F20DE03021F00E94EC25D3
:103AA800E1E0A0C00E9400260E946C25D8F4ED89B0
:103AB800FE89B0960E94DA25A689B789808D918DF6
:103AC800E985FA856B857C850E947525AF81B88567
:103AD80088279927EA0FFB1F0E947E25AD89BE899A
:103AE8000E94A425AD89BE890E9484254DC00E94EC
:103AF80000260E94FD27C9F00E94E5250D010E94BD
:103B0800DF25D0010E94022858F40E94D5250E9482
:103B1800F325EA85FB856C857D850E94832209F45F
:103B280004C00E94EC25E1E05DC00E948923AD89B4
:103B3800BE8956960E94BA27AD89BE891596EC9122
:103B4800EF5FEC93AD89BE890E94A9250E94AE253E
:103B5800E989FA89E117F20710F419892A89AD89E8
:103B6800BE890E94A925AD89BE899096EA0FFB1FE0
:103B7800FA93EA93EF81F8850E94B525AD89BE894D
:103B88001496EC91E064EC930E94BB25ED89FE89C4
:103B98000E94C425D0010E94BA27AF85B8890E9427
:103BA800CE25E989FA89E11BF20BE98BFA8BB0CEB5
:103BB8000E94E5250D010E94DF25D0010E94FD2706
:103BC80050F4AD89BE8916960E94AF27AD89BE898B
:103BD8001A960E94BA27AD89BE891496EC91E062C4
:103BE800EC93E0E00E940F2867960895BA93AA9391
:103BF80024970E940A280E940726FA93EA93E985E7
:103C0800FA850E94292509F077C0EF81F885A481FB
:103C1800A07209F471C0A481A074B1F00E940726B3
:103C2800E181EA93E885F985B096FA93EA93EA8503
:103C3800FB850E94992521F0E1E00E941128C0C06F
:103C4800AF81B8850E94A4250E940726FA93EA93BB
:103C5800E985FA85A28DB38D848D958D0E94CA1051
:103C68000E2F003009F048C0AF81B8855E961D91CF
:103C78002C91A12FB22F1B96EC91E062EC93AF81AF
:103C8800B8851A960E94AF27A12FB22F5C960E9482
:103C9800BA27AF81B8851E960E94AB27A12FB22FF5
:103CA8005A96ED93FC93EF81F885A685B7858089B0
:103CB8009189FD01BC010E943027A12FB22F549693
:103CC800ED93FC930E9434100E945024A12FB22F30
:103CD80056960E94BA27AF81B8851496EC91EF7D6D
:103CE800EC930E9407263496A1E0A0830E94072641
:103CF800DF010E9431110E2FE02F0E94112860C0B1
:103D0800BA93AA930A93A981BA8170DF0E2F003063
:103D180021F4A981BA810E94BA24E02F08815AC0EF
:103D2800E091C800E078E1F3E091CE000895AA930D
:103D3800E091C800E072E1F3E881E093CE002196BB
:103D48000895BA93AA930A93A981BA81ED91A98398
:103D5800BA830E2FE03019F0A02FE9DFF5CFAAE0E3
:103D6800E6DF088137C0BA93AA930E9408280D811C
:103D78001E812F813885002E012AD9F0D1DF4E2FE0
:103D8800483051F4AD81BE810A171B0720F4215039
:103D980030400F5F1F4FF2CF4A3059F03F932F93B7
:103DA8002F5F3F4FE42FAF91BF91EC93015010402C
:103DB800E2CFD901E0E0EC93EF81F8850E940F286B
:103DC80029960895BA93AA93AA81B1DFA881B981E7
:103DD8000E941822239608950E945921AA81BB8126
:103DE80012960E94AB27309729F1AA81BB811496BD
:103DF8000E94AB278F01309761F00230E0E01E0788
:103E080080F0F80131978F01AA81BB811496ED9358
:103E1800FC93AA81BB8112960E9418223197AC812B
:103E2800A083AA81BB810E94AB27FF2312F00E94C6
:103E3800182206C0AA81BB81EFEFFFEFED93FC9338
:103E4800198108810C94F620BA93AA9326970E94A8
:103E5800072800E0AC85BD850E94BA24EA89FB8961
:103E68003196EA8BFB8B3197E4913E2FE03009F4D1
:103E78001FC1E02FE03039F4353211F401E002C0FF
:103E88000E940C2614C1E130A9F4353219F40E94BD
:103E98000C260CC102E050E010E03D3211F411E0B4
:103EA80006C13B3211F45BE202C1303211F450E238
:103EB800FEC002C0E23039F440E003E0303311F4D0
:103EC8001068F5C003C0E33009F0F1C0303310F0DA
:103ED8003A3308F007C0AAE04A9F402DE32FE05389
:103EE8004E0FE5C0E32FE33649F40E941326E88914
:103EF800F989A481AA930E941926D8C0E33769F4E6
:103F08000E941326A889B98914960E948624AE8136
:103F1800BF810E9409210E2F0FC0E03789F40E944B
:103F28001326A889B98914960E948624AE81BF8178
:103F38000E9415210E2F186012601F7720E034C0F0
:103F4800E43611F0E93611F4146002C0E53731F4B3
:103F5800ECEDF8E0EE83FF8305E00CC0E83511F4E2
:103F6800186003C0E83709F0A1C0E6EEF8E0EE8378
:103F7800FF8304E012FF14C00E9413260E941F262C
:103F8800AB85AA233AF4EA85FB850E94F526EA87E1
:103F9800FB875DE2503011F00F5F01C01B7F04C04A
:103FA8000E9413260E941F2610FD11C0041778F4E2
:103FB80017FF08C012FF04C01B7F352F015001C036
:103FC80030E301C030E20E940C264150EFCF202F91
:103FD80011FF17C02030A1F013FF06C0EE81FF814A
:103FE8003591EE83FF8305C0AE81BF813D91AE83DD
:103FF800BF830E940C26403009F041502150EACF7F
:104008004BC030E3EE81FF810E94C427E887F9871F
:10401800EE81FF813296EE83FF83E885F985AA85D4
:10402800BB85AE17BF0750F03F5FA885B985EA8505
:10403800FB85EA1BFB0BEA87FB87EFCF3A3328F0B7
:1040480013FF02C0395F01C0395D14FD1AC0313356
:1040580020F4A885B985119709F409C0421710F012
:1040680010FF01C013C030E217FF0BC030E310612E
:1040780012FF07C01B7F5A930E941926403009F08F
:1040880041500E940C26403009F041502150A8852B
:10409800B985129708F0B5CF10FF08C0403031F04D
:1040A8004150E0E2EA930E941926F8CF00E0D6CE0C
:1040B800AC85BD850E94AB270E940E2864960895A2
:1040C800FF92F82E26970E940928DE011C960E946E
:1040D8002726309719F4EFEFFFEF23C0DE0116967D
:1040E8000E94D8268D01DE011C960E94D8260E94C7
:1040F8008624E0E0E887E987DE011A960E942726F1
:10410800FA93EA931A930A93E0EFFEE1FA93EA939B
:10411800DE011A9699DE9F01AE81BF81E0E0EC9343
:10412800F9010E9410282A96FF900895FF92F82E10
:1041380026971A930A93DE0114960E94D8268D01B9
:10414800E0E0EC83ED83EE83EF83DE0118960E94B6
:104158002726FA93EA931A930A93E6EEFEE1FA9376
:10416800EA93DE01189670DE198108812896FF907F
:104178000895BA93AA936627772789919991E99127
:10418800F991A991B991009629F001976D917191D2
:104198006717C9F3671B10F4EFEF0895E0E009F023
:1041A800E3950895BA93AA9399818881009641F07E
:1041B800BD81AC81FB81EA8161916D930197E1F743
:1041C800FD81EC8126960895BA93AA93B981A881B6
:1041D800109631F0FC81EB816A8161931197E9F7C0
:1041E800EB81FC8125960895BA93AA93E991F991F8
:1041F800A991B991CD016D916623E9F71197619164
:104208006D936623E1F7FC010895BA93AA93A991E7
:10421800B991EE27FF276D91662311F03196FBCFF8
:104228000895BA93AA93AA27BB27E991F991059013
:10423800002011F01196FBCFFD010895A2E0B0E037
:104248000C942C26DE011196AE0FBF1F08950E9414
:1042580045060C944206E981E07F0E2F02950F7007
:10426800A02FF5CFE981EF700E2FA02F0E944506F1
:10427800E5CFBA93AA930A9300E00895A981BA8179
:10428800F0E0EA0FFB1F0895A981BA81EE27A00F7D
:10429800BE1FEC9108950E94EC27EA1BFB0B0895C2
:1042A800EE27A00FBE1FEC910895BA93AA931A9314
:1042B8000A930895AA81BB81F0E0EA0FFB1F0F0162
:1042C8000895AE0FBF1FEC91D0010895F0E0E856B5
:1042D800FF4FE491D001EC930895F0E0EA0FFB1F43
:1042E8000F010895FE013396FA93EA930895EC912D
:1042F800E025DB01EC930895BA93AA9360971A938B
:104308000A9300E00895E02FF0E0DE011296EA0F2C
:10431800FB1F0F01AA89BB89C3CFE12FF0E0A4E0FE
:10432800B0E0B9CF0F01A989BA89EA0FFB1FBF0115
:10433800F00188CFEC91F0E0EC55FD4F0490E02FB0
:10434800F0E00895EC91F0E0EC55FC4FE4910E2676
:10435800E02FF0E00895EC910E26E02FF0E00895AC
:10436800E989FA89FA93EA93BDCF0E94B906DE017A
:1043780011960E947607EB89FC89FA93EA93DE018D
:1043880013960C948408AB89BC890E94A607AB8954
:10439800BC890C94B707EBA5FCA5EF70F070A0E101
:1043A800B0E079CFAA93BA93EA93FA93EFB7EA9376
:1043B80008950E945E090E946B090E9456090C9498
:1043C8006409E0E0EA93A0E00C949A060E9478065B
:1043D800ACEDB5E00C942C260E94A51EE4E4FAE0AE
:1043E800FA93EA93A4E6B0E00C94B71EFE01E05EEF
:1043F800FD4FFA93EA930895E4E4FAE0FA93EA9316
:104408000895A3E10E94A8190E2F00300895EAE448
:10441800FBE0FA93EA930895E0E0F1E0FA93EA9377
:10442800ADE3BAE00C94E31AED91FD913196FE9359
:10443800EE930895FA93EA93A0913F0AB091400A47
:10444800E0E10E945F27662777270E94DC2708950E
:10445800E0E0EA93A1E00C949A0684E00E949A2096
:1044680026960895662777270E946526DF01CB01E7
:10447800EFE6F2E163E87AE30E9493260E94DC27E4
:10448800ECCF0E949706E4CF0E94841EA4EFB1E00F
:104498000C942C26AFE7BAE00C947806F0E00E9462
:1044A8003A27DF01CB010895E983FA836B837C8384
:1044B8000895ED81FE816F8178850895A981BA817B
:1044C8008B819C810895E985FA85A181AA93EA8563
:1044D800FB85F296FA93EA93EC81FD816E817F81E8
:1044E8000E94DC27A1E00C94F20DA2A1B3A184A143
:1044F80095A10895E885F9856A857B8508950E94C8
:10450800DC27A1E00E948E0DE0300895FA93EA932B
:10451800A0E0B0E080E090E00C94CA109E96E0E045
:10452800F0E060E070E00E94BA270895F296FA93EE
:10453800EA93E0E0EA93A0E0B2E00C94E8200E945D
:10454800D727E981FA81F29608950E94AF27D00112
:104558000E94BA27E981FA810895A289B3898489DA
:1045680095890E94E127A1E00895A885B9858A85E3
:104578009B850895A230E0E0BE07E0E08E07E0E00A
:104588009E070895E1E0F0E060E070E008950E9481
:10459800AF27EC83FD836E837F830895EC85FD85CB
:1045A800FA93EA93D901E0E0F2E00E946527AE8130
:1045B800BF8188859985662777270E94E1260E9412
:1045C800CA10E0300895AC85BD85D296F901F17026
:1045D800AE0FBF1F0895EC85FD85FA93EA93AA856F
:1045E800BB858C859D850895E0E0F1E060E070E092
:1045F8000E9478270895AE81BF81888599850E9499
:10460800E1260E94CA10E03008950E945F27F170E9
:10461800AC85BD85D296AE0FBF1F08950E94AB270B
:10462800662777270895E0E8F0E060E070E00E94F0
:1046380078270895EFEFFFEF6FEF7FEF0895AD85CF
:10464800BE858F8598890895E989FA89FA93EA934E
:10465800D801E0E0F2E00E946527AF81B88589853E
:104668009A85662777270E94E1260E94CA104E2F56
:1046780040300895A989BA89D296F801F170EA0FF5
:10468800FB1F9F01ED85E1700895A985BA858B858B
:104698009C850895E989FA89FA93EA93AF85B889E0
:1046A80089899A890895AF81B88589859A850E94F4
:1046B800E1260E94CA104E2F403008950E945F27BD
:1046C800F170A989BA89D296EA0FFB1F0895AD81C6
:1046D800BE818F8198850895A985BA855E960E94C6
:1046E800AF27F5DF0E9402280895A130E0E0BE0759
:1046F800E0E08E07E0E09E070895AF3FEFEFBE07CA
:10470800EFEF8E07EFEF9E070895EF81F885698533
:104718007A850895A0E0B0E080E090E00895A6854D
:10472800B78580899189E9CF1E960E94B527EF5FEA
:10473800FF4F6F4F7F4F0E94BF2708950E94D227D7
:104748000895E889F9896A897B890895AC81BD81D2
:104758008E819F8108950E94C8270895EC83FD8368
:104768006E837F830895EC89FD89FA93EA9308950F
:104778000E949B11EC87FD876E877F870895AC8523
:10478800BD858E859F850895EC85FD856E857F8521
:104798000895EC81FD816E817F810895E887F9870E
:1047A8006A877B870895F5DFE0DE0E94FD2708957C
:1047B800E0E0F0E060E070E00895EA85FB856C8554
:1047C8007D850E94DC2708950E94E6270E94E62640
:1047D8000895A885B9851496ED93FC93A885B985A5
:1047E80008950E94AF27EA83FB836C837D83089535
:1047F800AA81BB818C819D810895A885B9850E9475
:10480800AB2708957E96DF010E94AF27F1DF0E9453
:1048180002280895EA81FB816C817D810E94F3273B
:104828000895EA81FB816C817D81A885B9851A96F6
:104838000E94BA27E2CF662777270E94DC260895D0
:10484800A885B9851E960E94BA270895EF70F07062
:10485800EE0F0E941927EA0FFB1FA885B98552960B
:10486800ED93FC93E0E008950E94AF270E94F327A0
:104878000895FA93EA93EA85FB85A285B385848532
:1048880095850895EB83FC836D837E830895AB81C2
:10489800BC818D819E810895F5DFEB81FC816D815E
:1048A8007E810895FA93EA9312DF0C94D913BA9390
:1048B800AA930E940928EC81FD81FA93EA93A0E06B
:1048C800B0E00E9411140E2F00300895AC81BD8114
:1048D8000E94AB27FA93EA93EE81FF81A685B785FC
:1048E800808991890E94CA100E2F003008953A934A
:1048F8002A93EE81FF81A489B589BA93AA93ABE084
:10490800B0E008950E94AB27EE83FF830895E88501
:10491800F985AE81BF810895E885F9853196E887E4
:10492800F9873197AE81BF81AE0FBF1F1C910895E3
:10493800E52F5F5FF0E0E30FF41F10830895EA0F9F
:10494800FB1FAB85BC85ED93FC931132089530DFD6
:104958000E94BA270895AE81BF8116960E94BA2791
:104968000895EE81FF81FA93EA930895E0E0F0E07C
:10497800ED93FC930895A12FB22F54964FCEA12FFB
:10498800B22F5A960E94AB270895662777270E9470
:10499800F0260895F296E250FE4FDF010E94AB2701
:1049A800E535AAEAFA0708950E94AF27EF7FFF7F4F
:1049B8006F7F7070E634A1E4FA07A4E56A07A0E007
:1049C8007A070895AFE4BFE0F0E0EE0FFF1FAE0FE7
:1049D800BF1F0895ED81FE81FA93EA930895E98B4C
:1049E800FA8B6B8B7C8B0895E989FA896B897C89B2
:1049F8000895AD81BE81A05CBF4F0E94AB2708958A
:104A0800AD89BE898F89988D16CFED81FE81A085ED
:104A1800B185FD010E9422270895ED81FE8165DDA3
:104A2800E3DF0E94DC260895A0E0B0E0A083B18314
:104A3800E12FF22F0895A98DBA8D0E94AB27089512
:104A4800FA93EA93EB8DFC8D0895A281B3810E94BD
:104A58005B190E2F00300895E98DFA8DA681B78174
:104A6800808591850895EF83F88769877A874DCE89
:104A7800A289B389848995890895A98DBA8D1496D8
:104A8800EC91E068EC930895EB87FC876D877E874F
:104A98000895EB85FC856D857E850895E98DFA8DF1
:104AA800E581F0E00895AB85BC858D859E850895E8
:104AB800E0E0F2E00E9465273E2F4F2F032E042AE4
:104AC8000895E98DFA8DA689B789808D918DE1CFFA
:104AD8000E94EB26E32FF42F662777270E940228EF
:104AE80008950E94EB26E0E0F2E060E070E00E94AA
:104AF8003F270895FA93EA93A0E0B2E00C94D620F9
:104B08001596EC91E30FEC93E32FF42FEE0FFF1FB4
:104B1800FE2FE0E01E2F2F2F0895E181EA93EA8D02
:104B2800FB8DB096FA93EA930895A689B789808D8C
:104B3800918D0E94E127A1E00E94F20DE0300895D6
:104B48001496EC91EF7BEC93089516960E94AB2790
:104B5800F1700895A0E0B2E0AE1BBF0B1A2F2B2F07
:104B68000895FA93EA93A12FB22F0C94D620E12F3F
:104B7800F22FAD81BE81EA0FFB1FED83FE830895FE
:104B880036960F01DF010E94AF27DF01CB01E12F2D
:104B9800F22F51CEED91FD91E10FF21FFE93EE93AE
:104BA8000895AD89BE890E94AB270895FA93EA93C8
:104BB800EF89F88D0895AD89BE891A960E94AF27AE
:104BC8000895ED89FE89A681B7818085918508952C
:104BD800AD89BE891496EC91E068EC930895E18163
:104BE800EA93EE89FF89B096FA93EA930895ED89DE
:104BF800FE89E581F0E00895ED89FE89A689B789E7
:104C0800808D918D82CDAF81B8850E94AB270895A4
:104C18003A93AD85BE85EF85F88909950895E889A9
:104C2800F9893497E88BF98B0895AD85BE85EF85B2
:104C3800F88909950895A889B98914960E94AB271F
:104C4800EA87FB8708950E94D8260E94AB2708951B
:104C5800109639F080EA9FE00197F1F7A89511972F
:104C6800C9F70895552342F4503811F4E0FF04C001
:104C78003196691F791F6BF050E8572711F45F933D
:104C88003CC05F3F31F0660F000C57956795752F54
:104C980008955F9300200AF03CC035C050E8192EF3
:104CA8001522880F991F9527550F879550E8072ECD
:104CB8000522660F771F7527550F67950895689425
:104CC80001C0E894309760407040B1F0002426F0AD
:104CD800772312F4009489D0172E7EE1112032F048
:104CE8007A95EE0FFF1F661F111CF9CFEF2FF62FD5
:104CF800612D5F93C1DF5F910895EE27FF27662737
:104D080077275F910895EFEFFFEF6FE77FEF5F91F0
:104D18000895EFEFFFEF6FE77FE75F9108955F93E7
:104D2800BDDF703821F411200AF4EDCFF2CF9038AE
:104D380009F4E3CF01240894970B1BF4D4F3002063
:104D4800F3CF792F1F932F933F934F93112411275C
:104D5800222733274427552790E2AE17BF07860737
:104D6800410730F0AE1BBF0B860B410B089401C006
:104D78008894551F221F331F111CAA1FBB1F881F91
:104D8800441F9A9551F7F901612D4F913F912F9149
:104D98001F91662332F0550FEE1FFF1F661F7A958D
:104DA80043F260DF5F9108950024AF0DB01D0895B0
:104DB800EA0FFB1F681F791F0895AE0FBF1F861FDC
:104DC800971F0895EA1BFB0B680B790B0895AE1B20
:104DD800BF0B860B970B0895EA2BFB2B682B792BBF
:104DE8000895F195E195F0400895F09560957095D6
:104DF800E195FF4F6F4F7F4F0895EE230E2EFD0173
:104E0800BC0131F0EE0FFF1F661F771F0A94D1F720
:104E18000895EE230E2EFD01BC0131F076956795BD
:104E2800F795E7950A94D1F70895EE0FFF1FEE0F57
:104E3800FF1FEE0FFF1FEE0FFF1F0895F695E79572
:104E4800F695E795F695E795F695E7950895EE0FAB
:104E5800FF1F661F771F0895E62FF72F60E070E0A9
:104E680008956E2F7F2FE0E0F0E008956F2F660F12
:104E7800660B762F08957A9F702D6B9F700DF89FA3
:104E8800700DE99F700D6A9F602D710DFB9F600D7D
:104E9800711DE89F600D711D8827FA9FF02D610D27
:104EA800781FEB9FF00D611D781FEA9FE02DF10D33
:104EB800681F781F08956E2F6A9FF0016B9FF00D91
:104EC80008950024112490E1AA0FBB1F001C111C97
:104ED8000E1A1F0A18F40E0E1F1E01C0A1609A9523
:104EE80099F7FD01D00108953F934F935F930024F4
:104EF80011244427552730E2AA0FBB1F881F991F8A
:104F0800001C111C441F551F0E1A1F0A460B570B75
:104F180028F40E0E1F1E461F571F01C0A1603A95A8
:104F280059F7FD01BC01D001CA015F914F913F9132
:104F38000895E894B7FF04C0A095B09511966894B9
:104F4800F7FD4FDFBEDFFD010EF44BDF0895ED9155
:104F5800FC9111970895ED91FD916D917C911397B6
:104F68000895ED91FD916D917D910895ED93FD93D7
:104F78006D937C9308957E936E93FE93EE930895BC
:104F88000590F491E02D0895E881F9816A817B818B
:104F98000895A881B9818A819B810895E883F9835E
:104FA8006A837B830895A083B18382839383089562
:104FB8007A936A93FA93EA9308959A938A93BA93A1
:104FC800AA930895182E862F612D192E972F712DCB
:104FD8001B2EBF2FF12D1A2EAE2FE12D08953097DD
:104FE80060407040089500240A160B06080609065A
:104FF8000895EA17FB07680779070895AE17BF07F2
:105008008607970708955A934A933A932A931A93CF
:105018000A9308955D814C813B812A811981088119
:105028000895AC0FBD1F05900D928A95E1F708957C
:00000001FF
